:04000000008300E792
:0400040000000033C5
:0400080000228293BD
:04000C0000330313A7
:04001000400E0E137D
:04001400003E1E1379
:04001800006283B34C
:04001C0000737333C7
:040020000033E313B3
:040024000103C313FE
:0400280000536333EB
:04002C000053433307
:040030000013131393
:04003400002353133F
:04003800401353130B
:04003C00005E20231F
:04004000000E230388
:04004400406383335F
:0400480000732333EB
:04004C00FFF3231388
:0400500000733333D3
:04005400002333133F
:0400580000730463CA
:04005C0000731463B6
:040060000013031373
:04006400007303130F
:04006800007344637A
:04006C000073546366
:040070000023031353
:04007400002303134F
:04007800008000EF15
:04007C0000630333E7
:040080000063031303
:00000001FF
